:020000040800F2
:100000000000022071100008D90E0008DF0E000861
:10001000E50E0008EB0E0008F10E000800000000DD
:10002000000000000000000000000000F70E0008C3
:10003000050F000800000000130F0008210F000842
:10004000C1100008C1100008C1100008C11000084C
:10005000C1100008C1100008C1100008C11000083C
:10006000C1100008C1100008C1100008C11000082C
:10007000C1100008C1100008C1100008C11000081C
:10008000C1100008C1100008C1100008C11000080C
:100090002D0F0008C1100008C1100008C110000891
:1000A000C1100008C1100008C1100008C1100008EC
:1000B000410F0008C1100008C1100008C11000085D
:1000C000C1100008C1100008C1100008C1100008CC
:1000D000C1100008C1100008550F0008C110000829
:1000E000690F0008C1100008C1100008C110000805
:1000F000C1100008C1100008C1100008C11000089C
:10010000C1100008C1100008C1100008C11000088B
:10011000C1100008C1100008C1100008C11000087B
:10012000C1100008C1100008C1100008C11000086B
:10013000C11000080000000000000000C11000080D
:10014000C1100008790F0008C1100008C110000894
:10015000C1100008C1100008C1100008C11000083B
:10016000C1100008C1100008C1100008C11000082B
:10017000C1100008C11000080000000000000000CD
:08018000C1100008C1100008C5
:1001880010B5054C237833B9044B13B10448AFF3C9
:1001980000800123237010BD0C0000200000000027
:1001A800DC4D000808B5034B1BB103490348AFF306
:1001B800008008BD0000000010000020DC4D000891
:1001C80053B94AB9002908BF00281CBF4FF0FF31B6
:1001D8004FF0FF3000F074B9ADF1080C6DE904CEB2
:1001E80000F006F8DDF804E0DDE9022304B070470A
:1001F8002DE9F047089D04468E46002B4DD18A42D2
:10020800944669D9B2FA82F252B101FA02F3C2F104
:10021800200120FA01F10CFA02FC41EA030E944095
:100228004FEA1C48210CBEFBF8F61FFA8CF708FBB6
:1002380016E341EA034306FB07F199420AD91CEB8E
:10024800030306F1FF3080F01F81994240F21C81C0
:10025800023E63445B1AA4B2B3FBF8F008FB103308
:1002680044EA034400FB07F7A7420AD91CEB04043D
:1002780000F1FF3380F00A81A74240F2078164440D
:10028800023840EA0640E41B00261DB1D440002392
:10029800C5E900433146BDE8F0878B4209D9002DF6
:1002A80000F0EF800026C5E9000130463146BDE880
:1002B800F087B3FA83F6002E4AD18B4202D38242EA
:1002C80000F2F980841A61EB030301209E46002D99
:1002D800E0D0C5E9004EDDE702B9FFDEB2FA82F2EE
:1002E800002A40F09280A1EB0C014FEA1C471FFA4C
:1002F8008CFE0126200CB1FBF7F307FB131140EA33
:1003080001410EFB03F0884208D91CEB010103F1FF
:10031800FF3802D2884200F2CB804346091AA4B2C1
:10032800B1FBF7F007FB101144EA01440EFB00FE95
:10033800A64508D91CEB040400F1FF3102D2A645FA
:1003480000F2BB800846A4EB0E0440EA03409CE799
:10035800C6F12007B34022FA07FC4CEA030C20FA46
:1003680007F401FA06F31C43F9404FEA1C4900FA66
:1003780006F3B1FBF9F8200C1FFA8CFE09FB1811E3
:1003880040EA014108FB0EF0884202FA06F20BD956
:100398001CEB010108F1FF3A80F08880884240F2A6
:1003A8008580A8F102086144091AA4B2B1FBF9F0EA
:1003B80009FB101144EA014100FB0EFE8E4508D9E5
:1003C8001CEB010100F1FF346CD28E456AD902386A
:1003D800614440EA0840A0FB0294A1EB0E01A1424F
:1003E800C846A64656D353D05DB1B3EB080261EBBD
:1003F8000E0101FA07F722FA06F3F1401F43C5E997
:10040800007100263146BDE8F087C2F12003D840CC
:100418000CFA02FC21FA03F3914001434FEA1C470E
:100428001FFA8CFEB3FBF7F007FB10360B0C43EA00
:10043800064300FB0EF69E4204FA02F408D91CEBB0
:10044800030300F1FF382FD29E422DD902386344AE
:100458009B1B89B2B3FBF7F607FB163341EA03414E
:1004680006FB0EF38B4208D91CEB010106F1FF389D
:1004780016D28B4214D9023E6144C91A46EA004694
:1004880038E72E46284605E70646E3E61846F8E626
:100498004B45A9D2B9EB020864EB0C0E0138A3E76F
:1004A8004646EAE7204694E74046D1E7D0467BE750
:1004B800023B614432E7304609E76444023842E7C8
:1004C800704700BF80B582B000AF7860084B094A1A
:1004D8000021786801F01AFC064B1B69082B02D131
:1004E800054B01221A7000BF0837BD4680BD00BF0A
:1004F8008C010020680100202B00002080B582B00C
:1005080000AF78607B681B68134A93421FD1134B76
:100518001B785A1CD1B2114A11701A46104B19781F
:10052800104B99540D4B1B781E2B02D10B4B0022FC
:100538001A700D4B01221A703223012208490B4808
:1005480003F0F1FB01220649084803F07EFC00BFD6
:100558000837BD4680BD00BF004400402900002088
:1005680028000020980100202A0000200C0100200B
:1005780080B500AF00F0A2FD00F088F800F054FA52
:1005880000F034F900F086F900F0D8F900F022FA0A
:1005980000F0DAF8334801F065FA334801F062FAFE
:1005A800324802F041FF02212E4801F0C1FC10211F
:1005B8002D4801F0BDFC4FF4967000F0F1FD2C4B76
:1005C80008221A612A4B00229A60294B0022DA601D
:1005D800274B12221A60274B64221A70254B2822B7
:1005E8005A70642000F0E0FC234B1B78002B1AD0D3
:1005F800224B1A781F4B1A70204B5A781D4B5A7091
:100608001C4B1A781B4B5B781344DAB2194B9A705F
:100618000721184800F07EFA03461A46154BDA718E
:10062800154B00221A70164B1B68002BDCD01420C7
:1006380000F0BAFC0B4801F034FB0346002B0ED047
:10064800104B0C4A0A49074801F050FA0346002BA0
:10065800CAD1012204210C4802F000FAC4E700F0D4
:100668009FFAC1E7740000209C000020C40000200D
:1006780050010020840100202B0000208C01002064
:10068800C8010020940100200004024080B594B005
:1006980000AF07F1200330220021184604F092FB36
:1006A80007F10C0300221A605A609A60DA601A6136
:1006B8000023BB60224B1B6C214A43F08053136418
:1006C8001F4B1B6C03F08053BB60BB6800237B602F
:1006D8001C4B1B681B4A43F480431360194B1B686F
:1006E80003F480437B607B6802233B620123FB6247
:1006F80010233B630023BB6307F12003184602F075
:10070800EBF90346002B01D000F04AFA0F23FB60F7
:1007180000233B6100237B610023BB610023FB6155
:1007280007F10C030021184602F04EFC0346002B8B
:1007380001D000F035FA00BF5037BD4680BD00BF7C
:10074800003802400070004080B584B000AF3B46DE
:1007580000221A605A609A60DA60214B214A1A60B6
:100768001F4B00225A601E4B00229A601C4B00222D
:100778001A611B4B01221A76194B002283F820209C
:10078800174B0022DA62164B174A9A62144B002262
:10079800DA60134B0122DA61114B002283F8302012
:1007A8000F4B01225A610E4800F01EFD0346002B34
:1007B80001D000F0F5F906233B6001237B6000239C
:1007C800BB603B461946064800F052FD0346002B25
:1007D80001D000F0E5F900BF1037BD4680BD00BF6D
:1007E8002C000020002001400100000F80B58AB0D5
:1007F80000AF264B264A1A60244B08225A60234B26
:1008080000229A60214B0022DA60204B4FF480329C
:100818001A611E4B00225A611C4B00221A761B4B90
:1008280000225A76194B00229A76184B0022DA7663
:10083800164B00221A77154B00225A77134800F0FE
:1008480035FF0346002B01D000F0AAF901233B62D3
:1008580004237B6100233B614FF4A2533B600023D8
:100868007B604FF4A253BB600023FB600023BB6195
:100878000123FB6114237B623B461946034801F0C0
:1008880011F800BF2837BD4680BD00BF74000020A6
:100898000064004080B58AB000AF264B264A1A6033
:1008A800244B08225A60234B00229A60214B0022D5
:1008B800DA60204B4FF480321A611E4B00225A61D5
:1008C8001C4B00221A761B4B00225A76194B002229
:1008D8009A76184B0022DA76164B00221A77154BB7
:1008E80000225A77134800F0E1FE0346002B01D09E
:1008F80000F056F901233B6219237B6101233B6118
:100908004FF410733B6000237B604FF41073BB609F
:100918000023FB600023BB610123FB6114237B627E
:100928003B461946034800F0BDFF00BF2837BD46C7
:1009380080BD00BF9C0000200068004080B586B0E4
:1009480000AF07F1080300221A605A609A60DA6063
:100958003B4600221A605A601D4B4FF080421A60D5
:100968001B4B0F225A601A4B00229A60184B42F216
:100978000F72DA60164B00221A61154B00229A6139
:10098800134802F001FD0346002B01D000F008F9DE
:100998004FF48053BB6007F1080319460C4802F076
:1009A800BBFE0346002B01D000F0FAF800233B60A1
:1009B80000237B603B461946054803F0D7F80346F9
:1009C800002B01D000F0ECF800BF1837BD4680BD01
:1009D800C400002080B500AF114B124A1A60104BBA
:1009E8004FF416525A600E4B00229A600C4B0022AC
:1009F800DA600B4B00221A61094B0C225A61084B32
:100A080000229A61064B0022DA61054803F03EF99C
:100A18000346002B01D000F0C3F800BF80BD00BF23
:100A28000C0100200044004080B58AB000AF07F1F7
:100A3800140300221A605A609A60DA601A6100236F
:100A48003B61314B1B6B304A43F0040313632E4B5D
:100A58001B6B03F004033B613B690023FB602A4BDB
:100A68001B6B294A43F080031363274B1B6B03F06E
:100A78008003FB60FB680023BB60234B1B6B224A8F
:100A880043F001031363204B1B6B03F00103BB60AE
:100A9800BB6800237B601C4B1B6B1B4A43F00203A3
:100AA8001363194B1B6B03F002037B607B68002206
:100AB8000F21164801F0D2FF4FF400537B614FF429
:100AC8008813BB610023FB6107F114031946104822
:100AD80001F028FE0F237B610123BB610023FB612A
:100AE80000233B6207F114031946084801F01AFE77
:100AF80000220021282001F04CFD282001F065FD8E
:100B080000BF2837BD4680BD0038024000040240BF
:100B18000008024080B487B000AF786039601D23B8
:100B2800FB72FF23FB7500233B6122E03B697A6877
:100B380013441A78FB7D5340FB750023FB6012E0D9
:100B480097F91730002B08DAFB7D5B005AB297F94A
:100B58000B3053405BB2FB7502E0FB7D5B00FB751D
:100B6800FB680133FB60FB68072BE9DD3B69013358
:100B78003B613A693B689A42D8DBFB7DDB43DBB2D9
:100B880018461C37BD465DF8047B704780B582B0B7
:100B980000AF786000F024FA00BF0837BD4680BD7A
:100BA80080B400AF72B600BFFEE7000080B483B027
:100BB80000AF00237B60104B5B6C0F4A43F480430B
:100BC80053640D4B5B6C03F480437B607B680023AC
:100BD8003B60094B1B6C084A43F080531364064B77
:100BE8001B6C03F080533B603B6800BF0C37BD466D
:100BF8005DF8047B704700BF0038024080B58AB0BA
:100C080000AF786007F1140300221A605A609A60F6
:100C1800DA601A617B681B68174A934227D1002360
:100C28003B61164B5B6C154A43F480735364134B5A
:100C38005B6C03F480733B613B690023FB600F4BE3
:100C48001B6B0E4A43F0010313630C4B1B6B03F041
:100C58000103FB60FB6840237B610323BB61002326
:100C6800FB6107F114031946054801F05BFD00BF5D
:100C78002837BD4680BD00BF002001400038024033
:100C88000000024080B58CB000AF786007F11C030B
:100C980000221A605A609A60DA601A617B681B68E1
:100CA8004A4A93423ED14A4B1B680133484A136073
:100CB800474B1B68012B0DD10023BB61454B1B6CB7
:100CC800444A43F000731364424B1B6C03F00073F7
:100CD800BB61BB6900237B613E4B1B6B3D4A43F004
:100CE800010313633B4B1B6B03F001037B617B69BF
:100CF8004FF4C053FB6102233B6201237B62032351
:100D0800BB620923FB6207F11C031946324801F054
:100D180009FD00220021142001F03BFC142001F001
:100D280054FC4FE07B681B682C4A93424AD100234D
:100D38003B61284B1B6C274A43F080631364254BA7
:100D48001B6C03F080633B613B69214B1B680133DB
:100D58001F4A13601E4B1B68012B0DD10023FB603B
:100D68001C4B1B6C1B4A43F000731364194B1B6C20
:100D780003F00073FB60FB680023BB60154B1B6B23
:100D8800144A43F002031363124B1B6B03F0020374
:100D9800BB60BB686023FB6102233B6201237B626B
:100DA8000323BB620923FB6207F11C0319460C48A5
:100DB80001F0B8FC00220021412001F0EAFB4120AB
:100DC80001F003FC00BF3037BD4680BD0064004021
:100DD800B8010020003802400000024000680040CE
:100DE8000004024080B584B000AF78607B681B685F
:100DF800B3F1804F15D10023FB600C4B1B6C0B4AE1
:100E080043F001031364094B1B6C03F00103FB60FF
:100E1800FB68002200211C2001F0BBFB1C2001F014
:100E2800D4FB00BF1037BD4680BD00BF003802406C
:100E380080B58AB000AF786007F1140300221A6009
:100E48005A609A60DA601A617B681B681D4A93428F
:100E580033D100233B611C4B1B6C1B4A43F400330A
:100E68001364194B1B6C03F400333B613B6900238B
:100E7800FB60154B1B6B144A43F001031363124BC1
:100E88001B6B03F00103FB60FB680C237B610223EF
:100E9800BB610023FB6103233B6207237B6207F1ED
:100EA80014031946094801F03DFC002200212620C0
:100EB80001F06FFB262001F088FB00BF2837BD46F4
:100EC80080BD00BF004400400038024000000240DE
:100ED80080B400AFFEE780B400AFFEE780B400AF97
:100EE800FEE780B400AFFEE780B400AFFEE780B451
:100EF80000AF00BFBD465DF8047B704780B400AF0B
:100F080000BFBD465DF8047B704780B400AF00BFEA
:100F1800BD465DF8047B704780B500AF00F020F94E
:100F280000BF80BD80B500AF024801F027F800BFC0
:100F380080BD00BF7400002080B500AF024802F0F9
:100F4800E3FA00BF80BD00BFC400002080B500AF39
:100F5800024802F0ABFF00BF80BD00BF0C010020BB
:100F680080B500AF4FF4005001F092FD00BF80BD86
:100F780080B500AF024801F001F800BF80BD00BF96
:100F88009C00002080B400AF064BD3F88830054A97
:100F980043F47003C2F8883000BFBD465DF8047B97
:100FA800704700BF00ED00E080B483B000AF786008
:100FB8007B68084A82FB03129210DB17D31A064A91
:100FC8001360064B00221A6000BF0C37BD465DF85F
:100FD800047B704767666666BC010020C801002074
:100FE80080B400AF1A4B1B68002B0BDD184B1B6835
:100FF800013B174A1360164B1B68002B02DC154B8C
:1010080001221A60144B1B68002B0BDD124B1B6866
:10101800013B114A1360104B1B68002B02DC0F4B7D
:1010280001221A600E4B1B68002B0BDD0C4B1B6852
:10103800013B0B4A13600A4B1B68002B02DC094B6F
:1010480001221A6000BFBD465DF8047B704700BFEF
:10105800BC010020C8010020C0010020CC010020F4
:10106800C4010020D0010020DFF834D00D480E491B
:101078000E4A002302E0D458C4500433C4188C42EA
:10108800F9D30B4A0B4C002301E013600432A2424F
:10109800FBD3FFF777FF03F071FEFFF769FA70479C
:1010A80000000220000000200C0000201C4E000858
:1010B8000C000020D8010020FEE7000080B500AF3A
:1010C8000E4B1B680D4A43F4007313600B4B1B68EF
:1010D8000A4A43F480631360084B1B68074A43F4C9
:1010E80080731360032001F049FA0F2000F008F81C
:1010F800FFF75CFD0023184680BD00BF003C02409E
:1011080080B582B000AF7860124B1A68124B1B781A
:1011180019464FF47A73B3FBF1F3B2FBF3F31846B5
:1011280001F061FA0346002B01D001230EE07B6831
:101138000F2B0AD8002279684FF0FF3001F029FA06
:10114800064A7B681360002300E00123184608372D
:10115800BD4680BD000000200800002004000020DB
:1011680080B400AF064B1B781A46064B1B68134425
:10117800044A136000BFBD465DF8047B704700BF9A
:1011880008000020D401002080B400AF034B1B6886
:101198001846BD465DF8047B704700BFD4010020A7
:1011A80080B584B000AF7860FFF7EEFFB8607B6869
:1011B800FB60FB68B3F1FF3F05D00A4B1B781A466A
:1011C800FB681344FB6000BFFFF7DEFF0246BB6805
:1011D800D31AFA689A42F7D800BF00BF1037BD4645
:1011E80080BD00BF0800002080B584B000AF7860E3
:1011F8000023FB737B68002B01D1012333E07B685C
:101208001B6C002B09D17868FFF7F8FC7B6800227B
:101218005A647B68002283F83C207B681B6C03F0CF
:101228001003002B18D17B681B6C23F4885323F020
:10123800020343F002027B681A64786800F03AF906
:101248007B6800225A647B681B6C23F0030343F01D
:1012580001027B681A6401E00123FB737B680022AA
:1012680083F83C20FB7B18461037BD4680BD000044
:1012780080B485B000AF786039600023BB607B68BC
:1012880093F83C30012B01D1022305E17B68012250
:1012980083F83C203B681B68092B25D97B681B68B1
:1012A800D9683B681B689BB21A4613465B00134417
:1012B8001E3B072202FA03F3DA437B681B680A40E5
:1012C800DA607B681B68D9683B689A683B681B686A
:1012D8009BB2184603465B0003441E3B9A407B685A
:1012E8001B680A43DA6022E07B681B6819693B685F
:1012F8001B689BB21A4613465B001344072202FA86
:1013080003F3DA437B681B680A401A617B681B6831
:1013180019693B689A683B681B689BB21846034684
:101328005B0003449A407B681B680A431A613B6868
:101338005B68062B24D87B681B68596B3B685A6826
:1013480013469B001344053B1F2202FA03F3DA43BA
:101358007B681B680A405A637B681B68596B3B684B
:101368001B689BB218463B685A6813469B00134497
:10137800053B00FA03F27B681B680A435A634CE09A
:101388003B685B680C2B24D87B681B68196B3B682F
:101398005A6813469B001344233B1F2202FA03F3A7
:1013A800DA437B681B680A401A637B681B68196B01
:1013B8003B681B689BB218463B685A6813469B00FB
:1013C8001344233B00FA03F27B681B680A431A6341
:1013D80023E07B681B68D96A3B685A6813469B0000
:1013E8001344413B1F2202FA03F3DA437B681B686C
:1013F8000A40DA627B681B68D96A3B681B689BB243
:1014080018463B685A6813469B001344413B00FA50
:1014180003F27B681B680A43DA62224BFB607B6835
:101428001B68214A934209D13B681B68122B05D1DE
:10143800FB685B6843F48002FB685A607B681B6842
:10144800194A934223D13B681B68102B03D03B6891
:101458001B68112B1BD1FB685B6843F40002FB6817
:101468005A603B681B68102B11D1104B1B68104A3F
:10147800A2FB03239A0C13469B0013445B00BB603A
:1014880002E0BB68013BBB60BB68002BF9D17B68FD
:10149800002283F83C20002318461437BD465DF827
:1014A800047B704700230140002001400000002019
:1014B80083DE1B4380B485B000AF7860794BFB6056
:1014C800FB685B6823F44032FB685A60FB685A6823
:1014D8007B685B681A43FB685A607B681B685A68BC
:1014E8007B681B6822F480725A607B681B685968A5
:1014F8007B681B691A027B681B680A435A607B6811
:101508001B685A687B681B6822F040725A607B68C7
:101518001B6859687B689A687B681B680A435A602D
:101528007B681B689A687B681B6822F400629A6073
:101538007B681B6899687B68DA687B681B680A4364
:101548009A607B689B6A584A934222D07B681B68E2
:101558009A687B681B6822F070629A607B681B68D7
:1015680099687B689A6A7B681B680A439A607B68FB
:101578001B689A687B681B6822F040529A607B68F7
:101588001B6899687B68DA6A7B681B680A439A60FB
:101598000FE07B681B689A687B681B6822F07062A2
:1015A8009A607B681B689A687B681B6822F04052C7
:1015B8009A607B681B689A687B681B6822F0020245
:1015C8009A607B681B6899687B681B7E5A007B68F9
:1015D8001B680A439A607B6893F82030002B1BD065
:1015E8007B681B685A687B681B6842F400625A6013
:1015F8007B681B685A687B681B6822F460425A60E3
:101608007B681B6859687B685B6A013B5A037B6887
:101618001B680A435A6007E07B681B685A687B6846
:101628001B6822F400625A607B681B68DA6A7B6870
:101638001B6822F47002DA627B681B68D96A7B68CF
:10164800DB69013B1A057B681B680A43DA627B6821
:101658001B689A687B681B6822F400729A607B6832
:101668001B6899687B6893F830305A027B681B685E
:101678000A439A607B681B689A687B681B6822F437
:1016880080629A607B681B6899687B685B699A02CC
:101698007B681B680A439A6000BF1437BD465DF833
:1016A800047B7047002301400100000F80B584B01F
:1016B80000AF78607B68002B01D10123EDE07B68E7
:1016C80093F82030DBB2002B02D17868FFF7DAFA02
:1016D8007B681B681A687B681B6842F001021A6005
:1016E800FFF752FDF86012E0FFF74EFD0246FB6877
:1016F800D31A0A2B0BD97B685B6A43F400327B68E8
:101708005A627B68052283F820200123C5E07B68A4
:101718001B685B6803F00103002BE5D07B681B683E
:101728001A687B681B6822F002021A60FFF72CFD1A
:10173800F86012E0FFF728FD0246FB68D31A0A2B6F
:101748000BD97B685B6A43F400327B685A627B681A
:10175800052283F8202001239FE07B681B685B68D3
:1017680003F00203002BE5D17B681B7E012B08D117
:101778007B681B681A687B681B6842F080021A60E5
:1017880007E07B681B681A687B681B6822F0800288
:101798001A607B685B7E012B08D17B681B681A681E
:1017A8007B681B6842F040021A6007E07B681B6890
:1017B8001A687B681B6822F040021A607B689B7E6F
:1017C800012B08D17B681B681A687B681B6842F08C
:1017D80020021A6007E07B681B681A687B681B6830
:1017E80022F020021A607B68DB7E012B08D17B681F
:1017F8001B681A687B681B6822F010021A6007E0F1
:101808007B681B681A687B681B6842F010021A60C4
:101818007B681B7F012B08D17B681B681A687B6873
:101828001B6842F008021A6007E07B681B681A68A8
:101838007B681B6822F008021A607B685B7F012BBB
:1018480008D17B681B681A687B681B6842F0040231
:101858001A6007E07B681B681A687B681B6822F0BF
:1018680004021A607B689A687B68DB681A437B68A5
:101878001B691A437B685B6942EA03017B685B6802
:101888005A1E7B681B680A43DA617B6800225A6229
:101898007B68012283F82020002318461037BD46B4
:1018A80080BD000080B487B000AF786039607B6885
:1018B8001B687B617B6893F82030FB74FB7C012BF1
:1018C80003D0FB7C022B40F0BE80654B7B617B69BB
:1018D800D3F8003243F001027B69C3F800227B6928
:1018E800D3F8003223F47C527B69C3F800227B6969
:1018F800D3F800223B685B6A1B021A437B69C3F872
:1019080000223B685B6903F01F03012202FA03F31C
:10191800FB607B69D3F81C22FB68DB431A407B69B8
:10192800C3F81C223B68DB69002B23D17B69D3F801
:101938000C22FB68DB431A407B69C3F80C223B6826
:10194800DB6819043B685B689BB23A6852691943C3
:101958007B69483243F832103B689B6819043B683E
:101968001B689AB23B685B690A4379694833DB00B4
:101978000B445A603B68DB69012B22D17B69D3F8A1
:101988000C22FB681A437B69C3F80C223B681B686E
:1019980019043B685B689BB23A68526919437B69D2
:1019A800483243F832103B689B6819043B68DB688F
:1019B8009AB23B685B690A4379694833DB000B4498
:1019C8005A603B689B69002B09D17B69D3F80422D4
:1019D800FB68DB431A407B69C3F8042207E07B6994
:1019E800D3F80422FB681A437B69C3F804223B68D6
:1019F8001B69002B09D17B69D3F81422FB68DB43F0
:101A08001A407B69C3F8142207E07B69D3F81422D3
:101A1800FB681A437B69C3F814223B681B6A012BD5
:101A280007D17B69D3F81C22FB681A437B69C3F88A
:101A38001C227B69D3F8003223F001027B69C3F8CA
:101A48000022002306E07B685B6A43F480227B68FF
:101A58005A62012318461C37BD465DF8047B70475F
:101A68000064004080B584B000AF78607B6893F86C
:101A78002030DBB2012B2ED17B68022283F8202094
:101A88007B681B681A687B681B6822F001021A6071
:101A9800FFF77AFBF86012E0FFF776FB0246FB6877
:101AA800D31A0A2B0BD97B685B6A43F400327B6834
:101AB8005A627B68052283F82020012312E07B68A4
:101AC8001B685B6803F00103002BE5D17B680022EB
:101AD8005A62002306E07B685B6A43F400227B6855
:101AE8005A62012318461037BD4680BD80B489B0BC
:101AF80000AFF860B9607A603B60FB6893F820300B
:101B0800FB77FB681B689B68BB61FB7F012B03D0DD
:101B1800FB7F022B40F0B880BB6903F08063002B89
:101B28000AD1BB6903F00063002B05D1BB6903F040
:101B38008053002B00F0A080BB691B0E03F0030349
:101B48007B617B69022B07D9FB685B6A43F400025F
:101B5800FB685A6201239EE001227B699A403B6838
:101B68001A60BB689B68002B0DD1BB681B685A05BF
:101B7800BB68DB68F96809681A437B6918331B017D
:101B88000B441A600FE0BB685B68DA00BB689B68AF
:101B98001A43BB68DB68F96809681A437B6918331C
:101BA8001B010B441A60FB681968BB681A697B69DA
:101BB80018331B010B4404331A60BB681B7D012BCF
:101BC80011D1FB681A687B6918331B01134404336D
:101BD8001B68FA68116843F480727B6918331B012B
:101BE8000B4404331A607B6807331B781A067B683A
:101BF80006331B781B041A437B6805331B781B02CA
:101C080013437A68043212781046FA68116843EA76
:101C180000027B691B010B4403F5C6731A607B68DD
:101C280003331B781A067B6802331B781B041A439C
:101C38007B6801331B781B0213437A6812781046BD
:101C4800FA68116843EA00027B691B010B4403F53B
:101C5800C4731A60FB681A687B6918331B01134444
:101C68001B68FA68116843F001027B6918331B018D
:101C78000B441A6000230EE0FB685B6A43F4001211
:101C8800FB685A62012306E0FB685B6A43F4802222
:101C9800FB685A62012318462437BD465DF8047B69
:101CA800704780B485B000AF78600023FB607B6824
:101CB80093F82030FB72FB7A012B02D0FB7A022BBF
:101CC8001DD17B681B689B6803F08063002B02D0E2
:101CD800FB680133FB607B681B689B6803F000634B
:101CE800002B02D0FB680133FB607B681B689B6894
:101CF80003F08053002B02D0FB680133FB60FB68C4
:101D080018461437BD465DF8047B704780B487B029
:101D180000AFF860B9607A603B60FB6893F82030E8
:101D2800FB75FB7D012B03D0FB7D022B40F0F3807C
:101D3800BB68002B0ED1FB681B68DB6803F003034C
:101D4800002B16D1FB685B6A43F40012FB685A62E9
:101D58000123E7E0FB681B681B6903F00303002B02
:101D680007D1FB685B6A43F40012FB685A620123DF
:101D7800D8E0FB681A68BB681B331B0113441B6857
:101D880003F004027B689A607B689B68002B0CD187
:101D9800FB681A68BB681B331B0113441B685B0D87
:101DA800C3F30A027B681A600BE0FB681A68BB6819
:101DB8001B331B0113441B68DB0823F060427B685C
:101DC8005A60FB681A68BB681B331B0113441B6805
:101DD80003F002027B68DA60FB681A68BB681B3391
:101DE8001B01134404331B6803F00F027B681A615C
:101DF800FB681A68BB681B331B01134404331B6858
:101E08001B0ADAB27B689A61FB681A68BB681B33E5
:101E18001B01134404331B681B0C9AB27B685A617C
:101E2800FB681A68BB681B01134403F5DC731B6865
:101E3800DAB23B681A70FB681A68BB681B01134466
:101E480003F5DC731B681A0A3B680133D2B21A70B7
:101E5800FB681A68BB681B01134403F5DC731B6835
:101E68001A0C3B680233D2B21A70FB681A68BB6856
:101E78001B01134403F5DC731B681A0E3B6803331C
:101E8800D2B21A70FB681A68BB681B01134403F5C9
:101E9800DE731A683B680433D2B21A70FB681A689A
:101EA800BB681B01134403F5DE731B681A0A3B6801
:101EB8000533D2B21A70FB681A68BB681B01134459
:101EC80003F5DE731B681A0C3B680633D2B21A702E
:101ED800FB681A68BB681B01134403F5DE731B68B3
:101EE8001A0E3B680733D2B21A70BB68002B08D1B0
:101EF800FB681B68DA68FB681B6842F02002DA603E
:101F080007E0FB681B681A69FB681B6842F020023F
:101F18001A61002306E0FB685B6A43F48022FB68D1
:101F28005A62012318461C37BD465DF8047B70478A
:101F380080B485B000AF786039607B6893F8203052
:101F4800FB73FB7B012B02D0FB7B022B09D17B6847
:101F58001B6859697B681B683A680A435A61002301
:101F680006E07B685B6A43F480227B685A6201233F
:101F780018461437BD465DF8047B704780B58AB0B3
:101F880000AF786000237B627B681B685B693B62FB
:101F98007B681B685B68FB617B681B689B68BB612F
:101FA8007B681B68DB687B617B681B681B693B611E
:101FB8007B681B689B69FB603B6A03F00103002B8D
:101FC8007CD0BB6903F00103002B23D07B681B681E
:101FD80001229A60BB6903F00203002B03D07868E2
:101FE80000F083F916E0BB6903F00403002B04D06A
:101FF8007B6A43F400637B620CE0BB6903F008036F
:10200800002B04D07B6A43F480537B6202E078683B
:1020180000F089F9BB6903F48073002B24D07B6836
:102028001B684FF480729A60BB6903F40073002B3D
:1020380003D0786800F063F916E0BB6903F48063A5
:10204800002B04D07B6A43F400537B620CE0BB692D
:1020580003F40063002B04D07B6A43F480437B6263
:1020680002E0786800F069F9BB6903F48033002B5B
:1020780024D07B681B684FF480329A60BB6903F4F4
:102088000033002B03D0786800F043F916E0BB69F1
:1020980003F48023002B04D07B6A43F400437B6263
:1020A8000CE0BB6903F40023002B04D07B6A43F4E3
:1020B80080337B6202E0786800F049F93B6A03F0FC
:1020C8000803002B0CD07B6903F01003002B07D00A
:1020D8007B6A43F400737B627B681B681022DA60BA
:1020E8003B6A03F00403002B0BD07B6903F0080361
:1020F800002B06D07B681B680822DA60786800F03D
:1021080030F93B6A03F00203002B09D07B681B6897
:10211800DB6803F00303002B02D07868FEF7D2F9DE
:102128003B6A03F04003002B0CD03B6903F010031B
:10213800002B07D07B6A43F480637B627B681B6853
:1021480010221A613B6A03F02003002B0BD03B6975
:1021580003F00803002B06D07B681B6808221A616D
:10216800786800F012F93B6A03F01003002B09D0DD
:102178007B681B681B6903F00303002B02D0786897
:1021880000F0F9F83B6A03F40033002B0BD0FB692D
:1021980003F01003002B06D07B681B6810225A60DE
:1021A800786800F0FCF83B6A03F48033002B0BD00E
:1021B800FB6903F00803002B06D07B681B68082224
:1021C8005A60786800F0F5F83B6A03F40043002B86
:1021D8007BD0FB6903F00403002B72D03B6A03F445
:1021E8008073002B08D0FB6803F00103002B03D099
:1021F8007B6A43F001037B623B6A03F40073002BA4
:1022080008D0FB6803F00203002B03D07B6A43F07D
:1022180002037B623B6A03F48063002B08D0FB68EF
:1022280003F00403002B03D07B6A43F004037B62B2
:102238003B6A03F40063002B43D0FB6803F0700390
:10224800002B3ED0FB6803F07003602B2BD0602B73
:102258002ED8502B22D0502B2AD8402B19D0402BC7
:1022680026D8302B10D0302B22D8102B02D0202B80
:1022780005D01DE07B6A43F008037B6219E07B6AA6
:1022880043F010037B6214E07B6A43F020037B6217
:102298000FE07B6A43F040037B620AE07B6A43F00D
:1022A80080037B6205E07B6A43F480737B6200E015
:1022B80000BF7B681B689A697B681B6822F0700204
:1022C8009A617B681B6804225A607B6A002B08D0DD
:1022D8007B685A6A7B6A1A437B685A62786800F09E
:1022E80072F800BF2837BD4680BD80B483B000AF08
:1022F800786000BF0C37BD465DF8047B704780B43A
:1023080083B000AF786000BF0C37BD465DF8047B32
:10231800704780B483B000AF786000BF0C37BD460B
:102328005DF8047B704780B483B000AF786000BF6D
:102338000C37BD465DF8047B704780B483B000AFAE
:10234800786000BF0C37BD465DF8047B704780B4E9
:1023580083B000AF786000BF0C37BD465DF8047BE2
:10236800704780B483B000AF786000BF0C37BD46BB
:102378005DF8047B704780B483B000AF786000BF1D
:102388000C37BD465DF8047B704780B483B000AF5E
:10239800786000BF0C37BD465DF8047B704780B499
:1023A80083B000AF786000BF0C37BD465DF8047B92
:1023B800704780B483B000AF786000BF0C37BD466B
:1023C8005DF8047B704780B483B000AF786000BFCD
:1023D8000C37BD465DF8047B7047000080B485B0BB
:1023E80000AF78607B6803F00703FB600C4BDB6889
:1023F800BB60BA684FF6FF031340BB60FB681A0264
:10240800BB68134343F0BF6343F40033BB60044A23
:10241800BB68D36000BF1437BD465DF8047B7047C6
:1024280000ED00E080B400AF044BDB681B0A03F04A
:1024380007031846BD465DF8047B704700ED00E0D1
:1024480080B483B000AF0346FB7197F90730002BC7
:102458000BDBFB7903F01F02074997F907305B098B
:10246800012000FA02F241F8232000BF0C37BD46D4
:102478005DF8047B704700BF00E100E080B483B0E2
:1024880000AF03463960FB7197F90730002B0ADB70
:102498003B68DAB20C4997F907301201D2B20B4403
:1024A80083F800230AE03B68DAB20849FB7903F0B5
:1024B8000F03043B1201D2B20B441A7600BF0C374B
:1024C800BD465DF8047B704700E100E000ED00E0E8
:1024D80080B489B000AFF860B9607A60FB6803F037
:1024E8000703FB61FB69C3F10703042B28BF04231F
:1024F800BB61FB690433062B02D9FB69033B00E08F
:1025080000237B614FF0FF32BB6902FA03F3DA4321
:10251800BB681A407B699A404FF0FF317B6901FA2A
:1025280003F3D9437B680B40134318462437BD4651
:102538005DF8047B7047000080B582B000AF78601A
:102548007B68013BB3F1807F01D301230FE00A4A86
:102558007B68013B53600F214FF0FF30FFF78EFF80
:10256800054B00229A60044B07221A600023184684
:102578000837BD4680BD00BF10E000E080B582B0DE
:1025880000AF78607868FFF729FF00BF0837BD46BD
:1025980080BD80B586B000AF0346B9607A60FB7332
:1025A80000237B61FFF73EFF78617A68B968786934
:1025B800FFF78EFF024697F90F3011461846FFF7CE
:1025C8005DFF00BF1837BD4680BD80B582B000AF43
:1025D8000346FB7197F907301846FFF731FF00BF34
:1025E8000837BD4680BD80B582B000AF7860786896
:1025F800FFF7A2FF034618460837BD4680BD80B5E1
:1026080084B000AF78607B689B6DFB60FEF7BCFD13
:10261800B8607B6893F83530DBB2022B08D07B6852
:1026280080225A657B68002283F83420012352E017
:102638007B681B681A687B681B6822F016021A60A0
:102648007B681B685A697B681B6822F080025A61A4
:102658007B681B6C002B03D17B689B6C002B07D01D
:102668007B681B681A687B681B6822F008021A607E
:102678007B681B681A687B681B6822F001021A6075
:1026880013E0FEF781FD0246BB68D31A052B0CD96F
:102698007B6820225A657B68032283F835207B6893
:1026A800002283F83420032315E07B681B681B682D
:1026B80003F00103002BE4D17B68DB6D3F229A40D5
:1026C800FB689A607B68012283F835207B680022CA
:1026D80083F83420002318461037BD4680BD80B4E7
:1026E80083B000AF78607B6893F83530DBB2022B9B
:1026F80004D07B6880225A6501230CE07B680522A0
:1027080083F835207B681B681A687B681B6822F091
:1027180001021A60002318460C37BD465DF8047B99
:102728007047000080B489B000AF7860396000233A
:102738007B6100233B610023BB610023FB616BE1EC
:102748000122FB6902FA03F37B613B681B687A6923
:1027580013403B613A697B699A4240F05A813B6871
:102768005B6803F00303012B05D03B685B6803F04B
:102778000303022B30D17B689B68BB61FB695B005C
:10278800032202FA03F3DB43BA691340BB613B68D7
:10279800DA68FB695B0002FA03F3BA691343BB61A9
:1027A8007B68BA699A607B685B68BB610122FB69D8
:1027B80002FA03F3DB43BA691340BB613B685B6809
:1027C8001B0903F00102FB6902FA03F3BA69134318
:1027D800BB617B68BA695A603B685B6803F00303B6
:1027E800032B17D07B68DB68BB61FB695B000322A6
:1027F80002FA03F3DB43BA691340BB613B689A688A
:10280800FB695B0002FA03F3BA691343BB617B6897
:10281800BA69DA603B685B6803F00303022B23D1D3
:10282800FB69DA087B68083253F82230BB61FB6920
:1028380003F007039B000F2202FA03F3DB43BA6994
:102848001340BB613B681A69FB6903F007039B00EF
:1028580002FA03F3BA691343BB61FB69DA087B68C0
:102868000832B96943F822107B681B68BB61FB69B1
:102878005B00032202FA03F3DB43BA691340BB612E
:102888003B685B6803F00302FB695B0002FA03F331
:10289800BA691343BB617B68BA691A603B685B68B5
:1028A80003F44033002B00F0B4800023FB60604B3E
:1028B8005B6C5F4A43F4804353645D4B5B6C03F489
:1028C8008043FB60FB685B4AFB699B08023352F854
:1028D8002330BB61FB6903F003039B000F2202FA5C
:1028E80003F3DB43BA691340BB617B68524A9342E6
:1028F8002BD07B68514A934225D07B68504A93423B
:102908001FD07B684F4A934219D07B684E4A934246
:1029180013D07B684D4A93420DD07B684C4A934252
:1029280007D07B684B4A934201D107230EE0082366
:102938000CE006230AE0052308E0042306E003234D
:1029480004E0022302E0012300E00023FA6902F018
:10295800030292009340BA691343BB613549FB698E
:102968009B080233BA6941F823203B4B9B68BB6143
:102978003B69DB43BA691340BB613B685B6803F49E
:102988008013002B03D0BA693B691343BB61324AF9
:10299800BB699360304BDB68BB613B69DB43BA6959
:1029A8001340BB613B685B6803F40013002B03D042
:1029B800BA693B691343BB61274ABB69D360264B9D
:1029C8005B68BB613B69DB43BA691340BB613B6829
:1029D8005B6803F40033002B03D0BA693B691343E7
:1029E800BB611D4ABB6953601B4B1B68BB613B69DC
:1029F800DB43BA691340BB613B685B6803F480330F
:102A0800002B03D0BA693B691343BB61124ABB6907
:102A18001360FB690133FB61FB690F2B7FF690AEF6
:102A280000BF00BF2437BD465DF8047B704700BF78
:102A38000038024000380140000002400004024013
:102A480000080240000C024000100240001402403E
:102A580000180240001C0240003C014080B483B0D2
:102A680000AF78600B467B8013467B707B78002B29
:102A780003D07A887B689A6103E07B881A047B68B4
:102A88009A6100BF0C37BD465DF8047B70470000B3
:102A980080B582B000AF0346FB80084B5A69FB88BB
:102AA8001340002B06D0054AFB885361FB88184663
:102AB80000F006F800BF0837BD4680BD003C014065
:102AC80080B483B000AF0346FB8000BF0C37BD461F
:102AD8005DF8047B7047000080B586B000AF786071
:102AE8007B68002B01D1012367E27B681B6803F038
:102AF8000103002B75D0884B9B6803F00C03042B53
:102B08000CD0854B9B6803F00C03082B12D1824B29
:102B18005B6803F48003B3F5800F0BD17E4B1B6811
:102B280003F40033002B5BD07B685B68002B57D124
:102B3800012342E27B685B68B3F5803F06D1764BA0
:102B48001B68754A43F4803313601DE07B685B683B
:102B5800B3F5A02F0CD1704B1B686F4A43F4802348
:102B680013606D4B1B686C4A43F4803313600BE0B1
:102B7800694B1B68684A23F480331360664B1B68F3
:102B8800654A23F4802313607B685B68002B13D0AD
:102B9800FEF7FAFA386108E0FEF7F6FA02463B69F2
:102BA800D31A642B01D9032307E25B4B1B6803F498
:102BB8000033002BF0D014E0FEF7E6FA386108E0A5
:102BC800FEF7E2FA02463B69D31A642B01D90323C4
:102BD800F3E1514B1B6803F40033002BF0D100E004
:102BE80000BF7B681B6803F00203002B63D04A4BCD
:102BF8009B6803F00C03002B0BD0474B9B6803F03A
:102C08000C03082B1CD1444B5B6803F48003002B96
:102C180016D1414B1B6803F00203002B05D07B68DB
:102C2800DB68012B01D00123C7E13B4B1B6823F074
:102C3800F8027B681B69DB00374913430B603AE0F5
:102C48007B68DB68002B20D0344B01221A60FEF72A
:102C58009BFA386108E0FEF797FA02463B69D31AF7
:102C6800022B01D90323A8E12B4B1B6803F00203B5
:102C7800002BF0D0284B1B6823F0F8027B681B69F7
:102C8800DB00254913430B6015E0244B00221A6032
:102C9800FEF77AFA386108E0FEF776FA02463B69F1
:102CA800D31A022B01D9032387E11B4B1B6803F0BE
:102CB8000203002BF0D17B681B6803F00803002B8C
:102CC80036D07B685B69002B16D0154B01221A6041
:102CD800FEF75AFA386108E0FEF756FA02463B69F1
:102CE800D31A022B01D9032367E10B4B5B6F03F067
:102CF8000203002BF0D01BE0094B00221A60FEF7FC
:102D080043FA38610EE0FEF73FFA02463B69D31AF0
:102D1800022B07D9032350E1003802400000474244
:102D2800800E4742884B5B6F03F00203002BEAD109
:102D38007B681B6803F00403002B00F097800023D6
:102D4800FB75814B1B6C03F08053002B0FD10023C4
:102D5800BB607D4B1B6C7C4A43F0805313647A4BF9
:102D68001B6C03F08053BB60BB680123FB75774B7A
:102D78001B6803F48073002B18D1744B1B68734ACB
:102D880043F480731360FEF7FFF9386108E0FEF73B
:102D9800FBF902463B69D31A022B01D903230CE144
:102DA8006A4B1B6803F48073002BF0D07B689B6828
:102DB800012B06D1644B1B6F634A43F00103136771
:102DC8001CE07B689B68052B0CD15F4B1B6F5E4A30
:102DD80043F0040313675C4B1B6F5B4A43F001032A
:102DE80013670BE0584B1B6F574A23F00103136717
:102DF800554B1B6F544A23F0040313677B689B6889
:102E0800002B15D0FEF7C0F938610AE0FEF7BCF9CF
:102E180002463B69D31A41F28832934201D903230F
:102E2800CBE0494B1B6F03F00203002BEED014E0FC
:102E3800FEF7AAF938610AE0FEF7A6F902463B69EF
:102E4800D31A41F28832934201D90323B5E03E4BAD
:102E58001B6F03F00203002BEED1FB7D012B05D184
:102E6800394B1B6C384A23F0805313647B689B6989
:102E7800002B00F0A180344B9B6803F00C03082B57
:102E88005CD07B689B69022B41D1314B00221A60D0
:102E9800FEF77AF9386108E0FEF776F902463B69F1
:102EA800D31A022B01D9032387E0274B1B6803F0B1
:102EB8000073002BF0D17B68DA697B681B6A1A43C0
:102EC8007B685B6A9B011A437B689B6A5B08013BD2
:102ED8001B041A437B68DB6A1B061B4913434B60C0
:102EE8001B4B01221A60FEF74FF9386108E0FEF724
:102EF8004BF902463B69D31A022B01D903235CE044
:102F0800114B1B6803F00073002BF0D054E0104BFA
:102F180000221A60FEF738F9386108E0FEF734F944
:102F280002463B69D31A022B01D9032345E0064B1D
:102F38001B6803F00073002BF0D13DE07B689B69B0
:102F4800012B07D1012338E000380240007000400F
:102F5800600047421B4B5B68FB607B689B69012BE9
:102F680028D0FB6803F480027B68DB699A4221D190
:102F7800FB6803F03F027B681B6A9A421AD1FA6821
:102F880047F6C07313407A68526A9201934211D18E
:102F9800FB6803F440327B689B6A5B08013B1B04B7
:102FA8009A4207D1FB6803F070627B68DB6A1B06F4
:102FB8009A4201D0012300E0002318461837BD4685
:102FC80080BD00BF0038024080B584B000AF786093
:102FD80039607B68002B01D10123CCE0684B1B686A
:102FE80003F007033A689A420CD9654B3A68D2B2A3
:102FF8001A70634B1B6803F007033A689A4201D0C2
:103008000123B8E07B681B6803F00203002B20D083
:103018007B681B6803F00403002B05D0594B9B68A1
:10302800584A43F4E05393607B681B6803F0080335
:10303800002B05D0534B9B68524A43F4604393607E
:10304800504B9B6823F0F0027B689B684D49134303
:103058008B607B681B6803F00103002B44D07B68FE
:103068005B68012B07D1474B1B6803F40033002B27
:1030780019D101237FE07B685B68022B03D07B6852
:103088005B68032B07D13F4B1B6803F00073002BD1
:1030980009D101236FE03B4B1B6803F00203002BAF
:1030A80001D1012367E0374B9B6823F003027B685B
:1030B8005B68344913438B60FEF766F8F8600AE0F2
:1030C800FEF762F80246FB68D31A41F2883293424F
:1030D80001D903234FE02B4B9B6803F00C027B685C
:1030E8005B689B009A42EBD1254B1B6803F00703F2
:1030F8003A689A420CD2224B3A68D2B21A70204BE4
:103108001B6803F007033A689A4201D0012332E0B2
:103118007B681B6803F00403002B08D0194B9B68DD
:1031280023F4E0527B68DB68164913438B607B68A5
:103138001B6803F00803002B09D0124B9B6823F48B
:1031480060427B681B69DB000E4913438B6000F00B
:1031580021F802460B4B9B681B0903F00F030A4931
:10316800CB5C22FA03F3094A1360094B1B68184623
:10317800FDF7C6FF002318461037BD4680BD00BFC7
:10318800003C024000380240F44D000800000020D6
:10319800040000202DE9B04F90B000AF00237B63FE
:1031A8000023FB6300233B630023BB63594B9B68ED
:1031B80003F00C03082B0DD0082B00F2A180002B84
:1031C80002D0042B03D09BE0534BBB639BE0534BD3
:1031D800BB6398E04F4B5B6803F03F037B634D4B49
:1031E8005B6803F48003002B28D04A4B5B689B097B
:1031F80000223B627A623B6AC3F308000021474B16
:1032080003FB01F2002300FB03F31344434AA0FB32
:103218000212FA620A46BA62FA6A1344FB627B6BCC
:103228000022BB61FA61D7E90623D7E90A01FCF756
:10323800C7FF02460B461346FB6353E0354B5B68FA
:103248009B0900223B617A613B69C3F3080A4FF08E
:10325800000B52465B464FF000004FF00001590149
:1032680041EAD261500102460B46B2EB0A0863EB11
:103278000B094FF000024FF000034FEA891343EAAD
:1032880098634FEA8812B2EB080463EB09054FF024
:1032980000024FF00003EB0043EA5473E2001446C7
:1032A8001D4614EB0A033B6045EB0B037B604FF0B4
:1032B80000024FF00003D7E9004529468B0221465A
:1032C80043EA915321468A02104619467B6B002235
:1032D800BB60FA60D7E90223FCF772FF02460B468F
:1032E8001346FB630B4B5B681B0C03F003030133B2
:1032F8005B003B63FA6B3B6BB2FBF3F3BB6302E02F
:10330800054BBB6300BFBB6B18464037BD46BDE8E5
:10331800B08F00BF003802400024F40040787D01DF
:1033280080B400AF034B1B681846BD465DF8047BAC
:10333800704700BF0000002080B500AFFFF7F0FF26
:103348000246054B9B689B0A03F007030349CB5CC5
:1033580022FA03F3184680BD00380240044E0008E4
:1033680080B500AFFFF7DCFF0246054B9B685B0B9F
:1033780003F007030349CB5C22FA03F3184680BD28
:1033880000380240044E000880B582B000AF786073
:103398007B68002B01D1012341E07B6893F83D3025
:1033A800DBB2002B06D17B68002283F83C207868CA
:1033B800FDF718FD7B68022283F83D207B681A68B8
:1033C8007B6804331946104600F096FA7B680122A0
:1033D80083F846207B68012283F83E207B6801221F
:1033E80083F83F207B68012283F840207B68012214
:1033F80083F841207B68012283F842207B68012200
:1034080083F843207B68012283F844207B680122EB
:1034180083F845207B68012283F83D200023184665
:103428000837BD4680BD000080B485B000AF786025
:103438007B6893F83D30DBB2012B01D001234EE0CD
:103448007B68022283F83D207B681B68DA687B680A
:103458001B6842F00102DA607B681B68234A9342CA
:1034680022D07B681B68B3F1804F1DD07B681B6836
:103478001F4A934218D07B681B681E4A934213D098
:103488007B681B681C4A93420ED07B681B681B4AEA
:10349800934209D07B681B68194A934204D07B6821
:1034A8001B68184A934211D17B681B689B6803F01C
:1034B8000703FB60FB68062B10D07B681B681A6843
:1034C8007B681B6842F001021A6007E07B681B6892
:1034D8001A687B681B6842F001021A6000231846CC
:1034E8001437BD465DF8047B704700BF00000140FB
:1034F8000004004000080040000C004000040140A7
:10350800004001400018004080B582B000AF7860EC
:103518007B681B681B6903F00203022B22D17B68BE
:103528001B68DB6803F00203022B1BD17B681B6856
:103538006FF002021A617B6801221A777B681B68A8
:103548009B6903F00303002B03D0786800F0B5F9FA
:1035580005E0786800F0A7F9786800F0B8F97B68AA
:1035680000221A777B681B681B6903F00403042B8D
:1035780022D17B681B68DB6803F00403042B1BD192
:103588007B681B686FF004021A617B6802221A7755
:103598007B681B689B6903F44073002B03D0786831
:1035A80000F08BF905E0786800F07DF9786800F0A4
:1035B8008EF97B6800221A777B681B681B6903F009
:1035C8000803082B22D17B681B68DB6803F008031B
:1035D800082B1BD17B681B686FF008021A617B6897
:1035E80004221A777B681B68DB6903F00303002B4E
:1035F80003D0786800F061F905E0786800F053F9C5
:10360800786800F064F97B6800221A777B681B6889
:103618001B6903F01003102B22D17B681B68DB6841
:1036280003F01003102B1BD17B681B686FF010028E
:103638001A617B6808221A777B681B68DB6903F4C8
:103648004073002B03D0786800F037F905E07868FC
:1036580000F029F9786800F03AF97B6800221A77B7
:103668007B681B681B6903F00103012B0ED17B6883
:103678001B68DB6803F00103012B07D17B681B681B
:103688006FF001021A617868FDF780FA7B681B68A1
:103698001B6903F08003802B0ED17B681B68DB68F5
:1036A80003F08003802B07D17B681B686FF08002D2
:1036B8001A61786800F0E0FA7B681B681B6903F000
:1036C8004003402B0ED17B681B68DB6803F0400386
:1036D800402B07D17B681B686FF040021A6178683D
:1036E80000F0FFF87B681B681B6903F02003202BA0
:1036F8000ED17B681B68DB6803F02003202B07D101
:103708007B681B686FF020021A61786800F0AAFADB
:1037180000BF0837BD4680BD80B584B000AF786073
:1037280039600023FB737B6893F83C30012B01D18F
:103738000223B4E07B68012283F83C207B680222E4
:1037480083F83D207B681B689B68BB60BB6823F0DF
:103758007703BB60BB6823F47F43BB607B681B684F
:10376800BA689A603B681B68B3F5005F3ED0B3F552
:10377800005F00F28780B3F5805F00F08680B3F5C4
:10378800805F7FD8702B1AD0702B7BD8602B50D0DD
:10379800602B77D8502B3CD0502B73D8402B58D067
:1037A800402B6FD8302B64D0302B6BD8202B60D0B7
:1037B800202B67D8002B5CD0102B5AD062E07B6896
:1037C80018683B6899683B685A683B68DB6800F092
:1037D800ADF97B681B689B68BB60BB6843F07703E7
:1037E800BB607B681B68BA689A604FE07B681868A2
:1037F8003B6899683B685A683B68DB6800F096F953
:103808007B681B689A687B681B6842F480429A60F0
:103818003CE07B6818683B6859683B68DB681A4677
:1038280000F00AF97B681B685021184600F063F91C
:103838002CE07B6818683B6859683B68DB681A4667
:1038480000F029F97B681B686021184600F053F9DD
:103858001CE07B6818683B6859683B68DB681A4657
:1038680000F0EAF87B681B684021184600F043F92D
:103878000CE07B681A683B681B681946104600F024
:103888003AF903E00123FB7300E000BF7B680122E3
:1038980083F83D207B68002283F83C20FB7B184698
:1038A8001037BD4680BD80B483B000AF786000BFDC
:1038B8000C37BD465DF8047B704780B483B000AF19
:1038C800786000BF0C37BD465DF8047B704780B454
:1038D80083B000AF786000BF0C37BD465DF8047B4D
:1038E800704780B483B000AF786000BF0C37BD4626
:1038F8005DF8047B7047000080B485B000AF786045
:1039080039607B681B68FB607B68404A934213D030
:103918007B68B3F1804F0FD07B683D4A93420BD050
:103928007B683C4A934207D07B683B4A934203D06A
:103938007B683A4A934208D1FB6823F07003FB6026
:103948003B685B68FA681343FB607B682F4A9342C5
:103958002BD07B68B3F1804F27D07B682C4A9342E9
:1039680023D07B682B4A93421FD07B682A4A934214
:103978001BD07B68294A934217D07B68284A934218
:1039880013D07B68274A93420FD07B68264A93421C
:103998000BD07B68254A934207D07B68244A934220
:1039A80003D07B68234A934208D1FB6823F4407311
:1039B800FB603B68DB68FA681343FB60FB6823F035
:1039C80080023B685B691343FB607B68FA681A6096
:1039D8003B689A687B68DA623B681A687B689A6217
:1039E8007B680A4A934203D07B680C4A934203D10E
:1039F8003B681A697B681A637B6801225A6100BFB9
:103A08001437BD465DF8047B704700BF00000140D5
:103A18000004004000080040000C00400004014081
:103A280000400140004401400048014000180040A7
:103A3800001C00400020004080B487B000AFF86050
:103A4800B9607A60FB681B6A7B61FB681B6A23F0BC
:103A58000102FB681A62FB689B693B613B6923F0C2
:103A6800F0033B617B681B013A6913433B617B6947
:103A780023F00A037B617A69BB6813437B61FB68A7
:103A88003A699A61FB687A691A6200BF1C37BD46B9
:103A98005DF8047B704780B487B000AFF860B96008
:103AA8007A60FB681B6A23F01002FB681A62FB68E5
:103AB8009B697B61FB681B6A3B617B6923F47043EC
:103AC8007B617B681B037A6913437B613B6923F045
:103AD800A0033B61BB681B013A6913433B61FB6868
:103AE8007A699A61FB683A691A6200BF1C37BD4659
:103AF8005DF8047B704780B485B000AF78603960AA
:103B08007B689B68FB60FB6823F07003FB603A6886
:103B1800FB68134343F00703FB607B68FA689A600D
:103B280000BF1437BD465DF8047B704780B487B08A
:103B380000AFF860B9607A603B60FB689B687B61A6
:103B48007B6923F47F437B613B681A027B681A43D5
:103B5800BB6813437A6913437B61FB687A699A608F
:103B680000BF1C37BD465DF8047B704780B485B044
:103B780000AF786039607B6893F83C30012B01D145
:103B880002235AE07B68012283F83C207B680222EA
:103B980083F83D207B681B685B68FB607B681B685B
:103BA8009B68BB60FB6823F07003FB603B681B6885
:103BB800FA681343FB607B681B68FA685A607B6885
:103BC8001B68214A934222D07B681B68B3F1804F5F
:103BD8001DD07B681B681D4A934218D07B681B6800
:103BE8001B4A934213D07B681B681A4A93420ED033
:103BF8007B681B68184A934209D07B681B68174A80
:103C0800934204D07B681B68154A93420CD1BB6869
:103C180023F08003BB603B685B68BA681343BB60F2
:103C28007B681B68BA689A607B68012283F83D202C
:103C38007B68002283F83C20002318461437BD46D1
:103C48005DF8047B704700BF00000140000400409D
:103C580000080040000C0040000401400040014002
:103C68000018004080B483B000AF786000BF0C3704
:103C7800BD465DF8047B704780B483B000AF7860C0
:103C880000BF0C37BD465DF8047B704780B582B035
:103C980000AF78607B68002B01D101233FE07B688F
:103CA80093F83D30DBB2002B06D17B68002283F805
:103CB8003C207868FDF7BCF87B68242283F83D2017
:103CC8007B681B68DA687B681B6822F40052DA603C
:103CD800786800F0DFFD7B681B681A697B681B68E1
:103CE80022F490421A617B681B685A697B681B68DA
:103CF80022F02A025A617B681B68DA687B681B68B5
:103D080042F40052DA607B6800221A647B68202241
:103D180083F83D207B68202283F83E200023184644
:103D28000837BD4680BD80B58AB002AFF860B9607B
:103D38003B601346FB8000237B61FB6893F83D30B2
:103D4800DBB2202B7CD1BB68002B02D0FB88002B78
:103D580001D1012375E0FB6893F83C30012B01D1B8
:103D680002236EE0FB68012283F83C20FB680022F6
:103D78001A64FB68212283F83D20FDF705FA786173
:103D8800FB68FA889A84FB68FA88DA84FB689B687F
:103D9800B3F5805F08D1FB681B69002B04D10023B1
:103DA800FB61BB68BB6103E0BB68FB610023BB61CF
:103DB800FB68002283F83C202AE03B6800937B697B
:103DC80000228021F86800F01FFB0346002B01D079
:103DD800032336E0FB69002B0BD1BB691B881A460D
:103DE800FB681B68C2F308025A60BB690233BB61F7
:103DF80007E0FB691A78FB681B685A60FB690133A6
:103E0800FB61FB68DB8C9BB2013B9AB2FB68DA84EE
:103E1800FB68DB8C9BB2002BCFD13B6800937B699E
:103E280000224021F86800F0EFFA0346002B01D089
:103E3800032306E0FB68202283F83D20002300E0EE
:103E4800022318462037BD4680BD80B584B000AF38
:103E5800F860B9601346FB80FB6893F83E30DBB22C
:103E6800202B1DD1BB68002B02D0FB88002B01D171
:103E7800012316E0FB6893F83C30012B01D10223A3
:103E88000FE0FB68012283F83C20FB6800221A63DC
:103E9800FB881A46B968F86800F024FB034600E07E
:103EA800022318461037BD4680BD000080B5BAB061
:103EB80000AF78607B681B681B68C7F8E4307B68D4
:103EC8001B68DB68C7F8E0307B681B685B69C7F86C
:103ED800DC300023C7F8D8300023C7F8D430D7F82F
:103EE800E43003F00F03C7F8D830D7F8D830002BE8
:103EF8000FD1D7F8E43003F02003002B09D0D7F80E
:103F0800E03003F02003002B03D0786800F007FCB2
:103F180056E2D7F8D830002B00F0DE80D7F8DC3036
:103F280003F00103002B06D1D7F8E03003F49073B7
:103F3800002B00F0D180D7F8E43003F00103002B08
:103F48000BD0D7F8E03003F48073002B05D07B68E2
:103F58001B6C43F001027B681A64D7F8E43003F065
:103F68000403002B0BD0D7F8DC3003F00103002B3F
:103F780005D07B681B6C43F002027B681A64D7F893
:103F8800E43003F00203002B0BD0D7F8DC3003F049
:103F98000103002B05D07B681B6C43F004027B688F
:103FA8001A64D7F8E43003F00803002B11D0D7F8CF
:103FB800E03003F02003002B05D1D7F8DC3003F004
:103FC8000103002B05D07B681B6C43F008027B685B
:103FD8001A647B681B6C002B00F0ED81D7F8E43085
:103FE80003F02003002B08D0D7F8E03003F02003BB
:103FF800002B02D0786800F092FB7B681B685B6935
:1040080003F04003402B0CBF01230023DBB2C7F8A9
:10401800D4307B681B6C03F00803002B03D1D7F85E
:10402800D430002B4FD0786800F09AFA7B681B6870
:104038005B6903F04003402B41D17B681B68143354
:10404800C7F89C30D7F89C3053E8003FC7F8983041
:10405800D7F8983023F04003C7F8D0307B681B6846
:104068001433D7F8D020C7F8A820C7F8A430D7F859
:10407800A410D7F8A82041E80023C7F8A030D7F843
:10408800A030002BD9D17B689B6B002B13D07B68A9
:104098009B6B7D4A1A657B689B6B1846FEF71FFB76
:1040A8000346002B16D07B689B6B1B6D7A68926B5E
:1040B800104698470EE0786800F090F90AE07868B2
:1040C80000F08CF906E0786800F088F97B68002237
:1040D8001A6470E100BF6EE17B681B6B012B40F036
:1040E8004A81D7F8E43003F01003002B00F0438135
:1040F800D7F8E03003F01003002B00F03C810023D8
:10410800BB607B681B681B68BB607B681B685B685F
:10411800BB60BB687B681B685B6903F04003402B8E
:1041280040F0B4807B689B6B1B685B68A7F8BE3067
:10413800B7F8BE30002B00F040817B689B8DB7F844
:10414800BE209A4280F039817B68B7F8BE20DA85B4
:104158007B689B6BDB69B3F5807F00F088807B68A8
:104168001B680C33C7F88830D7F8883053E8003F0D
:10417800C7F88430D7F8843023F48073C7F8B83090
:104188007B681B680C33D7F8B820C7F89420C7F8A9
:104198009030D7F89010D7F8942041E80023C7F85A
:1041A8008C30D7F88C30002BD9D17B681B6814333E
:1041B8007B677B6F53E8003F3B673B6F23F001034E
:1041C800C7F8B4307B681B681433D7F8B420C7F835
:1041D8008020FB67F96FD7F8802041E80023BB6790
:1041E800BB6F002BE1D17B681B6814333B663B6EC9
:1041F80053E8003FFB65FB6D23F04003C7F8B03080
:104208007B681B681433D7F8B020FA66BB66B96EB2
:10421800FA6E41E800237B667B6E002BE3D17B6856
:10422800202283F83E207B6800221A637B681B6883
:104238000C33FB64FB6C53E8003FBB64BB6C23F09E
:104248001003C7F8AC307B681B680C33D7F8AC2078
:10425800BA657B65796DBA6D41E800233B653B6DB6
:10426800002BE3D17B689B6B1846FEF7C8F97B6887
:104278009A8D7B68DB8D9BB2D31A9BB219467868FE
:1042880000F0B6F899E000BF2F4600087B689A8DC9
:104298007B68DB8D9BB2D31AA7F8CE307B68DB8DA9
:1042A8009BB2002B00F08B80B7F8CE30002B00F0CB
:1042B80086807B681B680C33BB63BB6B53E8003F8D
:1042C8007B637B6B23F49073C7F8C8307B681B68EB
:1042D8000C33D7F8C8207A643B64396C7A6C41E8AF
:1042E8000023FB63FB6B002BE3D17B681B68143353
:1042F8007B627B6A53E8003F3B623B6A23F0010321
:10430800C7F8C4307B681B681433D7F8C4203A63F5
:10431800FB62F96A3A6B41E80023BB62BB6A002B77
:10432800E3D17B68202283F83E207B6800221A6351
:104338007B681B680C333B613B6953E8003FFB60BB
:10434800FB6823F01003C7F8C0307B681B680C3388
:10435800D7F8C020FA61BB61B969FA6941E800235E
:104368007B617B69002BE3D1B7F8CE3019467868BA
:1043780000F03EF823E0D7F8E43003F08003002B88
:1043880009D0D7F8E03003F08003002B03D0786819
:1043980000F05DF914E0D7F8E43003F04003002B97
:1043A8000ED0D7F8E03003F04003002B08D078682F
:1043B80000F09DF904E000BF02E000BF00E000BF8C
:1043C800E837BD4680BD00BF80B483B000AF7860D9
:1043D80000BF0C37BD465DF8047B704780B483B0DE
:1043E80000AF786000BF0C37BD465DF8047B7047AE
:1043F80080B483B000AF78600B467B8000BF0C3779
:10440800BD465DF8047B704780B590B000AFF8609A
:10441800B9603B601346FB7150E0BB6CB3F1FF3FE2
:104428004CD0BB6C002B07D0FCF7AEFE02463B68B5
:10443800D31ABA6C9A4241D2FB681B680C33BB6230
:10444800BB6A53E8003F7B627B6A23F4D073FB634B
:10445800FB681B680C33FA6B7A633B63396B7A6BC6
:1044680041E80023FB62FB6A002BE5D1FB681B686F
:1044780014337B617B6953E8003F3B613B6923F060
:104488000103BB63FB681B681433BA6B3A62FB61B8
:10449800F9693A6A41E80023BB61BB69002BE5D1A1
:1044A800FB68202283F83D20FB68202283F83E2009
:1044B800FB68002283F83C2003230FE0FB681B689D
:1044C8001A68BB681340BA689A420CBF01230023DC
:1044D800DBB21A46FB799A429FD000231846403730
:1044E800BD4680BD80B485B000AFF860B9601346A2
:1044F800FB80FB68BA689A62FB68FA889A85FB6851
:10450800FA88DA85FB6800221A64FB68222283F89D
:104518003E20FB68002283F83C20FB681B69002BC7
:1045280007D0FB681B68DA68FB681B6842F4807276
:10453800DA60FB681B685A69FB681B6842F0010275
:104548005A61FB681B68DA68FB681B6842F0200246
:10455800DA60002318461437BD465DF8047B7047BF
:1045680080B495B000AF78607B681B680C337B63C0
:104578007B6B53E8003F3B633B6B23F49073FB6416
:104588007B681B680C33FA6C3A64FB63F96B3A6C12
:1045980041E80023BB63BB6B002BE5D17B681B683C
:1045A80014333B623B6A53E8003FFB61FB6923F02D
:1045B8000103BB647B681B681433BA6CFA62BB6284
:1045C800B96AFA6A41E800237B627B6A002BE5D16D
:1045D8007B681B6B012B19D17B681B680C33FB6054
:1045E800FB6853E8003FBB60BB6823F010037B64A3
:1045F8007B681B680C337A6CBA617B617969BA692C
:1046080041E800233B613B69002BE5D17B68202210
:1046180083F83E207B6800221A6300BF5437BD46EA
:104628005DF8047B704780B584B000AF78607B6824
:104638009B6BFB60FB680022DA85FB680022DA844A
:10464800F868FFF7CBFE00BF1037BD4680BD80B4C9
:1046580085B000AF78607B6893F83D30DBB2212BE2
:104668003ED17B689B68B3F5805F14D17B681B697A
:10467800002B10D17B681B6AFB60FB681B881A46FD
:104688007B681B68C2F308025A607B681B6A9A1C25
:104698007B681A6208E07B681B6A591C7A68116299
:1046A8001A787B681B685A607B68DB8C9BB2013B7D
:1046B8009BB27A681946D184002B0FD17B681B689E
:1046C800DA687B681B6822F08002DA607B681B6806
:1046D800DA687B681B6842F04002DA60002300E079
:1046E800022318461437BD465DF8047B704780B531
:1046F80082B000AF78607B681B68DA687B681B68EB
:1047080022F04002DA607B68202283F83D20786836
:10471800FFF75AFE002318460837BD4680BD80B50E
:104728008CB000AF78607B6893F83E30DBB2222B08
:1047380040F0AB807B689B68B3F5805F17D17B68DE
:104748001B69002B13D10023FB627B689B6ABB6249
:104758007B681B685B689BB2C3F308039AB2BB6AA9
:104768001A807B689B6A9A1C7B689A6226E07B6841
:104778009B6AFB620023BB627B689B68B3F5805F22
:1047880007D07B689B68002B0AD17B681B69002BCC
:1047980006D17B681B685B68DAB2FB6A1A7008E0AE
:1047A8007B681B685B68DBB203F07F03DAB2FB6AE5
:1047B8001A707B689B6A5A1C7B689A627B68DB8DDF
:1047C8009BB2013B9BB27A681946D185002B5AD11E
:1047D8007B681B68DA687B681B6822F02002DA6055
:1047E8007B681B68DA687B681B6822F48072DA6071
:1047F8007B681B685A697B681B6822F001025A6152
:104808007B68202283F83E207B681B6B012B35D107
:104818007B6800221A637B681B680C337B617B69A9
:1048280053E8003F3B613B6923F010037B627B68E0
:104838001B680C337A6A3A62FB61F9693A6A41E8A3
:104848000023BB61BB69002BE5D17B681B681B6833
:1048580003F01003102B0AD10023FB607B681B6850
:104868001B68FB607B681B685B68FB60FB687B6898
:104878009B8D19467868FFF7BBFD02E07868FBF767
:104888003DFE002302E0002300E0022318463037F3
:10489800BD4680BD2DE9B04FC0B000AFC7F8F400E9
:1048A800D7F8F4301B681B6923F44050D7F8F4306C
:1048B800D968D7F8F4301A6840EA01031361D7F8C9
:1048C800F4309A68D7F8F4301B691A43D7F8F430F3
:1048D8005B691A43D7F8F430DB691343C7F8F8303B
:1048E800D7F8F4301B68DB6823F4164121F00C017B
:1048F800D7F8F4301A68D7F8F8300B43D360D7F8F4
:10490800F4301B685B6923F44070D7F8F430996978
:10491800D7F8F4301A6840EA01035361D7F8F43045
:104928001A688F4B9A4205D0D7F8F4301A688D4B25
:104938009A4204D1FEF714FDC7F8FC0003E0FEF725
:10494800FBFCC7F8FC00D7F8F430DB69B3F5004F7F
:1049580040F00C81D7F8FC300022C7F8E830C7F8DF
:10496800EC20D7E93A4522462B469118B9655B41B8
:10497800FB65D7E91623214612EB0108294643EBCC
:1049880001094FF000024FF000034FEAC90343EA60
:1049980058734FEAC80290469946234618EB03031A
:1049A800C7F8E0302B4649EB0303C7F8E430D7F8E3
:1049B800F4305B680022C7F8D830C7F8DC20D7E9A4
:1049C80036120B46DB183B65134642EB03037B6547
:1049D800D7E91423D7E93801FBF7F2FB02460B4667
:1049E800614BA3FB02235B091C01D7F8FC300022B2
:1049F800C7F8D030C7F8D420D7E9348942464B46A7
:104A08009118B9645B41FB64D7E91223414612EB64
:104A1800010A494643EB010B4FF000024FF0000337
:104A28004FEACB0343EA5A734FEACA0292469B46BF
:104A380043461AEB0303C7F8C8304B464BEB030356
:104A4800C7F8CC30D7F8F4305B680022C7F8C0301C
:104A5800C7F8C420D7E930120B46DB183B6413466D
:104A680042EB03037B64D7E91023D7E93201FBF754
:104A7800A7FB02460B4611463B4BA3FB01235B09F0
:104A8800642202FB03F3CB1ADB0003F13202364B3C
:104A9800A3FB02235B095B0003F4F8731C44D7F8FB
:104AA800FC300022C7F8B830C7F8BC20D7E92E89F7
:104AB80042464B469118B9635B41FB63D7E90E2325
:104AC80041465118396349464B417B634FF0000218
:104AD8004FF00003D7E90CAB5946CB00514643EAE7
:104AE80051735146CA0010461946034642469B1860
:104AF800C7F8B0304B460A4642EB0303C7F8B43058
:104B0800D7F8F4305B680022C7F8A830C7F8AC20A3
:104B1800D7E92A120B46DB18BB62134642EB0303A4
:104B2800FB62D7E90A23D7E92C01FBF749FB0246C8
:104B38000B460D4BA3FB02135B09642101FB03F336
:104B4800D31ADB003233084AA2FB03235B0903F0C4
:104B58000702D7F8F4301B6822449A6005E100BFC9
:104B680000100140001401401F85EB51D7F8FC30BC
:104B78000022C7F8A030C7F8A420D7E92889424600
:104B88004B46911839625B417B62D7E9082341465D
:104B98005418494643EB01054FF000024FF000035B
:104BA800EB0043EA5473E20014461D464346E318FB
:104BB800C7F898304B4645EB0303C7F89C30D7F845
:104BC800F4305B680022C7F89030C7F894204FF0A3
:104BD80000024FF00003D7E9244529468B002146FF
:104BE80043EA917321468A00D7E92601FBF7E8FAE0
:104BF80002460B46604BA3FB02235B091C01D7F856
:104C0800FC300022C7F88830C7F88C20D7E9228901
:104C180042464B469118B9615B41FB61D7E90623CF
:104C280041465118396149464B417B614FF00002BA
:104C38004FF00003D7E904AB5946CB00514643EA8D
:104C480051735146CA0010461946034642469B18FE
:104C5800C7F880304B460A4642EB0303C7F8843056
:104C6800D7F8F4305B680022BB67FA674FF00002A0
:104C78004FF00003D7E91E8949468B00414643EAB5
:104C8800917341468A00D7E92001FBF799FA024659
:104C98000B46394BA3FB02135B09642101FB03F3A9
:104CA800D31A1B013233344AA2FB03235B0903F0F6
:104CB800F0031C44D7F8FC3000223B677A67D7E939
:104CC8001C8942464B469118B9605B41FB60D7E9A5
:104CD800022341465118396049464B417B604FF0E9
:104CE80000024FF00003D7E900AB5946CB0051460C
:104CF80043EA51735146CA001046194603464246D4
:104D08009B18BB664B460A4642EB0303FB66D7F883
:104D1800F4305B6800223B667A664FF000024FF081
:104D28000003D7E9188949468B00414643EA917345
:104D380041468A00D7E91A01FBF742FA02460B46B8
:104D48000D4BA3FB02135B09642101FB03F3D31A88
:104D58001B013233084AA2FB03235B0903F00F024D
:104D6800D7F8F4301B6822449A6000BF07F58077B3
:104D7800BD46BDE8B08F00BF1F85EB5170B50D4D26
:104D88000D4C641BA4100026A64209D10B4D0C4CF7
:104D980000F020F8641BA4100026A64205D170BDBF
:104DA80055F8043B98470136EEE755F8043B984719
:104DB8000136F2E7144E0008144E0008144E00089D
:104DC800184E000802440346934200D1704703F886
:104DD800011BF9E7F8B500BFF8BC08BC9E46704750
:0C4DE800F8B500BFF8BC08BC9E46704740
:104DF4000000000000000000010203040607080987
:084E040000000000010203049C
:084E0C00ECB3FF7F0100000080
:044E1400AD010008E4
:044E18008901000804
:0C4E1C000024F400100000000100000061
:04000005080010716E
:00000001FF
